{"contracts/MyContract.sol":{"MyContract":{"abi":[{"inputs":[],"stateMutability":"nonpayable","type":"constructor"},{"anonymous":false,"inputs":[{"indexed":true,"internalType":"address","name":"_from","type":"address"},{"indexed":true,"internalType":"address","name":"_to","type":"address"},{"indexed":false,"internalType":"uint256","name":"_value","type":"uint256"}],"name":"Transfer","type":"event"},{"inputs":[{"internalType":"address","name":"account","type":"address"}],"name":"balanceOf","outputs":[{"internalType":"uint256","name":"","type":"uint256"}],"stateMutability":"view","type":"function"},{"inputs":[],"name":"getMessage","outputs":[{"internalType":"string","name":"","type":"string"}],"stateMutability":"view","type":"function"},{"inputs":[],"name":"owner","outputs":[{"internalType":"address","name":"","type":"address"}],"stateMutability":"view","type":"function"},{"inputs":[{"internalType":"string","name":"_newMessage","type":"string"}],"name":"setMessage","outputs":[],"stateMutability":"nonpayable","type":"function"},{"inputs":[],"name":"totalSupply","outputs":[{"internalType":"uint256","name":"","type":"uint256"}],"stateMutability":"view","type":"function"},{"inputs":[{"internalType":"address","name":"to","type":"address"},{"internalType":"uint256","name":"amount","type":"uint256"}],"name":"transfer","outputs":[],"stateMutability":"nonpayable","type":"function"}],"evm":{"bytecode":{"linkReferences":{},"object":"6080604052620f42406002553480156200001857600080fd5b50600254600360003373ffffffffffffffffffffffffffffffffffffffff1673ffffffffffffffffffffffffffffffffffffffff1681526020019081526020016000208190555033600160006101000a81548173ffffffffffffffffffffffffffffffffffffffff021916908373ffffffffffffffffffffffffffffffffffffffff1602179055506040518060400160405280600f81526020017f496e697469616c206d657373616765000000000000000000000000000000000081525060009081620000e6919062000367565b506200044e565b600081519050919050565b7f4e487b7100000000000000000000000000000000000000000000000000000000600052604160045260246000fd5b7f4e487b7100000000000000000000000000000000000000000000000000000000600052602260045260246000fd5b600060028204905060018216806200016f57607f821691505b60208210810362000185576200018462000127565b5b50919050565b60008190508160005260206000209050919050565b60006020601f8301049050919050565b600082821b905092915050565b600060088302620001ef7fffffffffffffffffffffffffffffffffffffffffffffffffffffffffffffffff82620001b0565b620001fb8683620001b0565b95508019841693508086168417925050509392505050565b6000819050919050565b6000819050919050565b600062000248620002426200023c8462000213565b6200021d565b62000213565b9050919050565b6000819050919050565b620002648362000227565b6200027c62000273826200024f565b848454620001bd565b825550505050565b600090565b6200029362000284565b620002a081848462000259565b505050565b5b81811015620002c857620002bc60008262000289565b600181019050620002a6565b5050565b601f8211156200031757620002e1816200018b565b620002ec84620001a0565b81016020851015620002fc578190505b620003146200030b85620001a0565b830182620002a5565b50505b505050565b600082821c905092915050565b60006200033c600019846008026200031c565b1980831691505092915050565b600062000357838362000329565b9150826002028217905092915050565b6200037282620000ed565b67ffffffffffffffff8111156200038e576200038d620000f8565b5b6200039a825462000156565b620003a7828285620002cc565b600060209050601f831160018114620003df5760008415620003ca578287015190505b620003d6858262000349565b86555062000446565b601f198416620003ef866200018b565b60005b828110156200041957848901518255600182019150602085019450602081019050620003f2565b8683101562000439578489015162000435601f89168262000329565b8355505b6001600288020188555050505b505050505050565b610b8a806200045e6000396000f3fe608060405234801561001057600080fd5b50600436106100625760003560e01c806318160ddd14610067578063368b87721461008557806370a08231146100a15780638da5cb5b146100d1578063a9059cbb146100ef578063ce6d41de1461010b575b600080fd5b61006f610129565b60405161007c91906103f3565b60405180910390f35b61009f600480360381019061009a9190610568565b61012f565b005b6100bb60048036038101906100b6919061060f565b610142565b6040516100c891906103f3565b60405180910390f35b6100d961018b565b6040516100e6919061064b565b60405180910390f35b61010960048036038101906101049190610692565b6101b1565b005b610113610348565b6040516101209190610751565b60405180910390f35b60025481565b806000908161013e919061097f565b5050565b6000600360008373ffffffffffffffffffffffffffffffffffffffff1673ffffffffffffffffffffffffffffffffffffffff168152602001908152602001600020549050919050565b600160009054906101000a900473ffffffffffffffffffffffffffffffffffffffff1681565b80600360003373ffffffffffffffffffffffffffffffffffffffff1673ffffffffffffffffffffffffffffffffffffffff168152602001908152602001600020541015610233576040517f08c379a000000000000000000000000000000000000000000000000000000000815260040161022a90610a9d565b60405180910390fd5b80600360003373ffffffffffffffffffffffffffffffffffffffff1673ffffffffffffffffffffffffffffffffffffffff16815260200190815260200160002060008282546102829190610aec565b9250508190555080600360008473ffffffffffffffffffffffffffffffffffffffff1673ffffffffffffffffffffffffffffffffffffffff16815260200190815260200160002060008282546102d89190610b20565b925050819055508173ffffffffffffffffffffffffffffffffffffffff163373ffffffffffffffffffffffffffffffffffffffff167fddf252ad1be2c89b69c2b068fc378daa952ba7f163c4a11628f55a4df523b3ef8360405161033c91906103f3565b60405180910390a35050565b606060008054610357906107a2565b80601f0160208091040260200160405190810160405280929190818152602001828054610383906107a2565b80156103d05780601f106103a5576101008083540402835291602001916103d0565b820191906000526020600020905b8154815290600101906020018083116103b357829003601f168201915b5050505050905090565b6000819050919050565b6103ed816103da565b82525050565b600060208201905061040860008301846103e4565b92915050565b6000604051905090565b600080fd5b600080fd5b600080fd5b600080fd5b6000601f19601f8301169050919050565b7f4e487b7100000000000000000000000000000000000000000000000000000000600052604160045260246000fd5b6104758261042c565b810181811067ffffffffffffffff821117156104945761049361043d565b5b80604052505050565b60006104a761040e565b90506104b3828261046c565b919050565b600067ffffffffffffffff8211156104d3576104d261043d565b5b6104dc8261042c565b9050602081019050919050565b82818337600083830152505050565b600061050b610506846104b8565b61049d565b90508281526020810184848401111561052757610526610427565b5b6105328482856104e9565b509392505050565b600082601f83011261054f5761054e610422565b5b813561055f8482602086016104f8565b91505092915050565b60006020828403121561057e5761057d610418565b5b600082013567ffffffffffffffff81111561059c5761059b61041d565b5b6105a88482850161053a565b91505092915050565b600073ffffffffffffffffffffffffffffffffffffffff82169050919050565b60006105dc826105b1565b9050919050565b6105ec816105d1565b81146105f757600080fd5b50565b600081359050610609816105e3565b92915050565b60006020828403121561062557610624610418565b5b6000610633848285016105fa565b91505092915050565b610645816105d1565b82525050565b6000602082019050610660600083018461063c565b92915050565b61066f816103da565b811461067a57600080fd5b50565b60008135905061068c81610666565b92915050565b600080604083850312156106a9576106a8610418565b5b60006106b7858286016105fa565b92505060206106c88582860161067d565b9150509250929050565b600081519050919050565b600082825260208201905092915050565b60005b8381101561070c5780820151818401526020810190506106f1565b60008484015250505050565b6000610723826106d2565b61072d81856106dd565b935061073d8185602086016106ee565b6107468161042c565b840191505092915050565b6000602082019050818103600083015261076b8184610718565b905092915050565b7f4e487b7100000000000000000000000000000000000000000000000000000000600052602260045260246000fd5b600060028204905060018216806107ba57607f821691505b6020821081036107cd576107cc610773565b5b50919050565b60008190508160005260206000209050919050565b60006020601f8301049050919050565b600082821b905092915050565b6000600883026108357fffffffffffffffffffffffffffffffffffffffffffffffffffffffffffffffff826107f8565b61083f86836107f8565b95508019841693508086168417925050509392505050565b6000819050919050565b600061087c610877610872846103da565b610857565b6103da565b9050919050565b6000819050919050565b61089683610861565b6108aa6108a282610883565b848454610805565b825550505050565b600090565b6108bf6108b2565b6108ca81848461088d565b505050565b5b818110156108ee576108e36000826108b7565b6001810190506108d0565b5050565b601f82111561093357610904816107d3565b61090d846107e8565b8101602085101561091c578190505b610930610928856107e8565b8301826108cf565b50505b505050565b600082821c905092915050565b600061095660001984600802610938565b1980831691505092915050565b600061096f8383610945565b9150826002028217905092915050565b610988826106d2565b67ffffffffffffffff8111156109a1576109a061043d565b5b6109ab82546107a2565b6109b68282856108f2565b600060209050601f8311600181146109e957600084156109d7578287015190505b6109e18582610963565b865550610a49565b601f1984166109f7866107d3565b60005b82811015610a1f578489015182556001820191506020850194506020810190506109fa565b86831015610a3c5784890151610a38601f891682610945565b8355505b6001600288020188555050505b505050505050565b7f4e6f7420656e6f75676820746f6b656e73000000000000000000000000000000600082015250565b6000610a876011836106dd565b9150610a9282610a51565b602082019050919050565b60006020820190508181036000830152610ab681610a7a565b9050919050565b7f4e487b7100000000000000000000000000000000000000000000000000000000600052601160045260246000fd5b6000610af7826103da565b9150610b02836103da565b9250828203905081811115610b1a57610b19610abd565b5b92915050565b6000610b2b826103da565b9150610b36836103da565b9250828201905080821115610b4e57610b4d610abd565b5b9291505056fea2646970667358221220dbc55827b7508a1b2e9058b7e36e31bab0e086e895f8c020e8937584ecff033d64736f6c63430008130033","opcodes":"PUSH1 0x80 PUSH1 0x40 MSTORE PUSH3 0xF4240 PUSH1 0x2 SSTORE CALLVALUE DUP1 ISZERO PUSH3 0x18 JUMPI PUSH1 0x0 DUP1 REVERT JUMPDEST POP PUSH1 0x2 SLOAD PUSH1 0x3 PUSH1 0x0 CALLER PUSH20 0xFFFFFFFFFFFFFFFFFFFFFFFFFFFFFFFFFFFFFFFF AND PUSH20 0xFFFFFFFFFFFFFFFFFFFFFFFFFFFFFFFFFFFFFFFF AND DUP2 MSTORE PUSH1 0x20 ADD SWAP1 DUP2 MSTORE PUSH1 0x20 ADD PUSH1 0x0 KECCAK256 DUP2 SWAP1 SSTORE POP CALLER PUSH1 0x1 PUSH1 0x0 PUSH2 0x100 EXP DUP2 SLOAD DUP2 PUSH20 0xFFFFFFFFFFFFFFFFFFFFFFFFFFFFFFFFFFFFFFFF MUL NOT AND SWAP1 DUP4 PUSH20 0xFFFFFFFFFFFFFFFFFFFFFFFFFFFFFFFFFFFFFFFF AND MUL OR SWAP1 SSTORE POP PUSH1 0x40 MLOAD DUP1 PUSH1 0x40 ADD PUSH1 0x40 MSTORE DUP1 PUSH1 0xF DUP2 MSTORE PUSH1 0x20 ADD PUSH32 0x496E697469616C206D6573736167650000000000000000000000000000000000 DUP2 MSTORE POP PUSH1 0x0 SWAP1 DUP2 PUSH3 0xE6 SWAP2 SWAP1 PUSH3 0x367 JUMP JUMPDEST POP PUSH3 0x44E JUMP JUMPDEST PUSH1 0x0 DUP2 MLOAD SWAP1 POP SWAP2 SWAP1 POP JUMP JUMPDEST PUSH32 0x4E487B7100000000000000000000000000000000000000000000000000000000 PUSH1 0x0 MSTORE PUSH1 0x41 PUSH1 0x4 MSTORE PUSH1 0x24 PUSH1 0x0 REVERT JUMPDEST PUSH32 0x4E487B7100000000000000000000000000000000000000000000000000000000 PUSH1 0x0 MSTORE PUSH1 0x22 PUSH1 0x4 MSTORE PUSH1 0x24 PUSH1 0x0 REVERT JUMPDEST PUSH1 0x0 PUSH1 0x2 DUP3 DIV SWAP1 POP PUSH1 0x1 DUP3 AND DUP1 PUSH3 0x16F JUMPI PUSH1 0x7F DUP3 AND SWAP2 POP JUMPDEST PUSH1 0x20 DUP3 LT DUP2 SUB PUSH3 0x185 JUMPI PUSH3 0x184 PUSH3 0x127 JUMP JUMPDEST JUMPDEST POP SWAP2 SWAP1 POP JUMP JUMPDEST PUSH1 0x0 DUP2 SWAP1 POP DUP2 PUSH1 0x0 MSTORE PUSH1 0x20 PUSH1 0x0 KECCAK256 SWAP1 POP SWAP2 SWAP1 POP JUMP JUMPDEST PUSH1 0x0 PUSH1 0x20 PUSH1 0x1F DUP4 ADD DIV SWAP1 POP SWAP2 SWAP1 POP JUMP JUMPDEST PUSH1 0x0 DUP3 DUP3 SHL SWAP1 POP SWAP3 SWAP2 POP POP JUMP JUMPDEST PUSH1 0x0 PUSH1 0x8 DUP4 MUL PUSH3 0x1EF PUSH32 0xFFFFFFFFFFFFFFFFFFFFFFFFFFFFFFFFFFFFFFFFFFFFFFFFFFFFFFFFFFFFFFFF DUP3 PUSH3 0x1B0 JUMP JUMPDEST PUSH3 0x1FB DUP7 DUP4 PUSH3 0x1B0 JUMP JUMPDEST SWAP6 POP DUP1 NOT DUP5 AND SWAP4 POP DUP1 DUP7 AND DUP5 OR SWAP3 POP POP POP SWAP4 SWAP3 POP POP POP JUMP JUMPDEST PUSH1 0x0 DUP2 SWAP1 POP SWAP2 SWAP1 POP JUMP JUMPDEST PUSH1 0x0 DUP2 SWAP1 POP SWAP2 SWAP1 POP JUMP JUMPDEST PUSH1 0x0 PUSH3 0x248 PUSH3 0x242 PUSH3 0x23C DUP5 PUSH3 0x213 JUMP JUMPDEST PUSH3 0x21D JUMP JUMPDEST PUSH3 0x213 JUMP JUMPDEST SWAP1 POP SWAP2 SWAP1 POP JUMP JUMPDEST PUSH1 0x0 DUP2 SWAP1 POP SWAP2 SWAP1 POP JUMP JUMPDEST PUSH3 0x264 DUP4 PUSH3 0x227 JUMP JUMPDEST PUSH3 0x27C PUSH3 0x273 DUP3 PUSH3 0x24F JUMP JUMPDEST DUP5 DUP5 SLOAD PUSH3 0x1BD JUMP JUMPDEST DUP3 SSTORE POP POP POP POP JUMP JUMPDEST PUSH1 0x0 SWAP1 JUMP JUMPDEST PUSH3 0x293 PUSH3 0x284 JUMP JUMPDEST PUSH3 0x2A0 DUP2 DUP5 DUP5 PUSH3 0x259 JUMP JUMPDEST POP POP POP JUMP JUMPDEST JUMPDEST DUP2 DUP2 LT ISZERO PUSH3 0x2C8 JUMPI PUSH3 0x2BC PUSH1 0x0 DUP3 PUSH3 0x289 JUMP JUMPDEST PUSH1 0x1 DUP2 ADD SWAP1 POP PUSH3 0x2A6 JUMP JUMPDEST POP POP JUMP JUMPDEST PUSH1 0x1F DUP3 GT ISZERO PUSH3 0x317 JUMPI PUSH3 0x2E1 DUP2 PUSH3 0x18B JUMP JUMPDEST PUSH3 0x2EC DUP5 PUSH3 0x1A0 JUMP JUMPDEST DUP2 ADD PUSH1 0x20 DUP6 LT ISZERO PUSH3 0x2FC JUMPI DUP2 SWAP1 POP JUMPDEST PUSH3 0x314 PUSH3 0x30B DUP6 PUSH3 0x1A0 JUMP JUMPDEST DUP4 ADD DUP3 PUSH3 0x2A5 JUMP JUMPDEST POP POP JUMPDEST POP POP POP JUMP JUMPDEST PUSH1 0x0 DUP3 DUP3 SHR SWAP1 POP SWAP3 SWAP2 POP POP JUMP JUMPDEST PUSH1 0x0 PUSH3 0x33C PUSH1 0x0 NOT DUP5 PUSH1 0x8 MUL PUSH3 0x31C JUMP JUMPDEST NOT DUP1 DUP4 AND SWAP2 POP POP SWAP3 SWAP2 POP POP JUMP JUMPDEST PUSH1 0x0 PUSH3 0x357 DUP4 DUP4 PUSH3 0x329 JUMP JUMPDEST SWAP2 POP DUP3 PUSH1 0x2 MUL DUP3 OR SWAP1 POP SWAP3 SWAP2 POP POP JUMP JUMPDEST PUSH3 0x372 DUP3 PUSH3 0xED JUMP JUMPDEST PUSH8 0xFFFFFFFFFFFFFFFF DUP2 GT ISZERO PUSH3 0x38E JUMPI PUSH3 0x38D PUSH3 0xF8 JUMP JUMPDEST JUMPDEST PUSH3 0x39A DUP3 SLOAD PUSH3 0x156 JUMP JUMPDEST PUSH3 0x3A7 DUP3 DUP3 DUP6 PUSH3 0x2CC JUMP JUMPDEST PUSH1 0x0 PUSH1 0x20 SWAP1 POP PUSH1 0x1F DUP4 GT PUSH1 0x1 DUP2 EQ PUSH3 0x3DF JUMPI PUSH1 0x0 DUP5 ISZERO PUSH3 0x3CA JUMPI DUP3 DUP8 ADD MLOAD SWAP1 POP JUMPDEST PUSH3 0x3D6 DUP6 DUP3 PUSH3 0x349 JUMP JUMPDEST DUP7 SSTORE POP PUSH3 0x446 JUMP JUMPDEST PUSH1 0x1F NOT DUP5 AND PUSH3 0x3EF DUP7 PUSH3 0x18B JUMP JUMPDEST PUSH1 0x0 JUMPDEST DUP3 DUP2 LT ISZERO PUSH3 0x419 JUMPI DUP5 DUP10 ADD MLOAD DUP3 SSTORE PUSH1 0x1 DUP3 ADD SWAP2 POP PUSH1 0x20 DUP6 ADD SWAP5 POP PUSH1 0x20 DUP2 ADD SWAP1 POP PUSH3 0x3F2 JUMP JUMPDEST DUP7 DUP4 LT ISZERO PUSH3 0x439 JUMPI DUP5 DUP10 ADD MLOAD PUSH3 0x435 PUSH1 0x1F DUP10 AND DUP3 PUSH3 0x329 JUMP JUMPDEST DUP4 SSTORE POP JUMPDEST PUSH1 0x1 PUSH1 0x2 DUP9 MUL ADD DUP9 SSTORE POP POP POP JUMPDEST POP POP POP POP POP POP JUMP JUMPDEST PUSH2 0xB8A DUP1 PUSH3 0x45E PUSH1 0x0 CODECOPY PUSH1 0x0 RETURN INVALID PUSH1 0x80 PUSH1 0x40 MSTORE CALLVALUE DUP1 ISZERO PUSH2 0x10 JUMPI PUSH1 0x0 DUP1 REVERT JUMPDEST POP PUSH1 0x4 CALLDATASIZE LT PUSH2 0x62 JUMPI PUSH1 0x0 CALLDATALOAD PUSH1 0xE0 SHR DUP1 PUSH4 0x18160DDD EQ PUSH2 0x67 JUMPI DUP1 PUSH4 0x368B8772 EQ PUSH2 0x85 JUMPI DUP1 PUSH4 0x70A08231 EQ PUSH2 0xA1 JUMPI DUP1 PUSH4 0x8DA5CB5B EQ PUSH2 0xD1 JUMPI DUP1 PUSH4 0xA9059CBB EQ PUSH2 0xEF JUMPI DUP1 PUSH4 0xCE6D41DE EQ PUSH2 0x10B JUMPI JUMPDEST PUSH1 0x0 DUP1 REVERT JUMPDEST PUSH2 0x6F PUSH2 0x129 JUMP JUMPDEST PUSH1 0x40 MLOAD PUSH2 0x7C SWAP2 SWAP1 PUSH2 0x3F3 JUMP JUMPDEST PUSH1 0x40 MLOAD DUP1 SWAP2 SUB SWAP1 RETURN JUMPDEST PUSH2 0x9F PUSH1 0x4 DUP1 CALLDATASIZE SUB DUP2 ADD SWAP1 PUSH2 0x9A SWAP2 SWAP1 PUSH2 0x568 JUMP JUMPDEST PUSH2 0x12F JUMP JUMPDEST STOP JUMPDEST PUSH2 0xBB PUSH1 0x4 DUP1 CALLDATASIZE SUB DUP2 ADD SWAP1 PUSH2 0xB6 SWAP2 SWAP1 PUSH2 0x60F JUMP JUMPDEST PUSH2 0x142 JUMP JUMPDEST PUSH1 0x40 MLOAD PUSH2 0xC8 SWAP2 SWAP1 PUSH2 0x3F3 JUMP JUMPDEST PUSH1 0x40 MLOAD DUP1 SWAP2 SUB SWAP1 RETURN JUMPDEST PUSH2 0xD9 PUSH2 0x18B JUMP JUMPDEST PUSH1 0x40 MLOAD PUSH2 0xE6 SWAP2 SWAP1 PUSH2 0x64B JUMP JUMPDEST PUSH1 0x40 MLOAD DUP1 SWAP2 SUB SWAP1 RETURN JUMPDEST PUSH2 0x109 PUSH1 0x4 DUP1 CALLDATASIZE SUB DUP2 ADD SWAP1 PUSH2 0x104 SWAP2 SWAP1 PUSH2 0x692 JUMP JUMPDEST PUSH2 0x1B1 JUMP JUMPDEST STOP JUMPDEST PUSH2 0x113 PUSH2 0x348 JUMP JUMPDEST PUSH1 0x40 MLOAD PUSH2 0x120 SWAP2 SWAP1 PUSH2 0x751 JUMP JUMPDEST PUSH1 0x40 MLOAD DUP1 SWAP2 SUB SWAP1 RETURN JUMPDEST PUSH1 0x2 SLOAD DUP2 JUMP JUMPDEST DUP1 PUSH1 0x0 SWAP1 DUP2 PUSH2 0x13E SWAP2 SWAP1 PUSH2 0x97F JUMP JUMPDEST POP POP JUMP JUMPDEST PUSH1 0x0 PUSH1 0x3 PUSH1 0x0 DUP4 PUSH20 0xFFFFFFFFFFFFFFFFFFFFFFFFFFFFFFFFFFFFFFFF AND PUSH20 0xFFFFFFFFFFFFFFFFFFFFFFFFFFFFFFFFFFFFFFFF AND DUP2 MSTORE PUSH1 0x20 ADD SWAP1 DUP2 MSTORE PUSH1 0x20 ADD PUSH1 0x0 KECCAK256 SLOAD SWAP1 POP SWAP2 SWAP1 POP JUMP JUMPDEST PUSH1 0x1 PUSH1 0x0 SWAP1 SLOAD SWAP1 PUSH2 0x100 EXP SWAP1 DIV PUSH20 0xFFFFFFFFFFFFFFFFFFFFFFFFFFFFFFFFFFFFFFFF AND DUP2 JUMP JUMPDEST DUP1 PUSH1 0x3 PUSH1 0x0 CALLER PUSH20 0xFFFFFFFFFFFFFFFFFFFFFFFFFFFFFFFFFFFFFFFF AND PUSH20 0xFFFFFFFFFFFFFFFFFFFFFFFFFFFFFFFFFFFFFFFF AND DUP2 MSTORE PUSH1 0x20 ADD SWAP1 DUP2 MSTORE PUSH1 0x20 ADD PUSH1 0x0 KECCAK256 SLOAD LT ISZERO PUSH2 0x233 JUMPI PUSH1 0x40 MLOAD PUSH32 0x8C379A000000000000000000000000000000000000000000000000000000000 DUP2 MSTORE PUSH1 0x4 ADD PUSH2 0x22A SWAP1 PUSH2 0xA9D JUMP JUMPDEST PUSH1 0x40 MLOAD DUP1 SWAP2 SUB SWAP1 REVERT JUMPDEST DUP1 PUSH1 0x3 PUSH1 0x0 CALLER PUSH20 0xFFFFFFFFFFFFFFFFFFFFFFFFFFFFFFFFFFFFFFFF AND PUSH20 0xFFFFFFFFFFFFFFFFFFFFFFFFFFFFFFFFFFFFFFFF AND DUP2 MSTORE PUSH1 0x20 ADD SWAP1 DUP2 MSTORE PUSH1 0x20 ADD PUSH1 0x0 KECCAK256 PUSH1 0x0 DUP3 DUP3 SLOAD PUSH2 0x282 SWAP2 SWAP1 PUSH2 0xAEC JUMP JUMPDEST SWAP3 POP POP DUP2 SWAP1 SSTORE POP DUP1 PUSH1 0x3 PUSH1 0x0 DUP5 PUSH20 0xFFFFFFFFFFFFFFFFFFFFFFFFFFFFFFFFFFFFFFFF AND PUSH20 0xFFFFFFFFFFFFFFFFFFFFFFFFFFFFFFFFFFFFFFFF AND DUP2 MSTORE PUSH1 0x20 ADD SWAP1 DUP2 MSTORE PUSH1 0x20 ADD PUSH1 0x0 KECCAK256 PUSH1 0x0 DUP3 DUP3 SLOAD PUSH2 0x2D8 SWAP2 SWAP1 PUSH2 0xB20 JUMP JUMPDEST SWAP3 POP POP DUP2 SWAP1 SSTORE POP DUP2 PUSH20 0xFFFFFFFFFFFFFFFFFFFFFFFFFFFFFFFFFFFFFFFF AND CALLER PUSH20 0xFFFFFFFFFFFFFFFFFFFFFFFFFFFFFFFFFFFFFFFF AND PUSH32 0xDDF252AD1BE2C89B69C2B068FC378DAA952BA7F163C4A11628F55A4DF523B3EF DUP4 PUSH1 0x40 MLOAD PUSH2 0x33C SWAP2 SWAP1 PUSH2 0x3F3 JUMP JUMPDEST PUSH1 0x40 MLOAD DUP1 SWAP2 SUB SWAP1 LOG3 POP POP JUMP JUMPDEST PUSH1 0x60 PUSH1 0x0 DUP1 SLOAD PUSH2 0x357 SWAP1 PUSH2 0x7A2 JUMP JUMPDEST DUP1 PUSH1 0x1F ADD PUSH1 0x20 DUP1 SWAP2 DIV MUL PUSH1 0x20 ADD PUSH1 0x40 MLOAD SWAP1 DUP2 ADD PUSH1 0x40 MSTORE DUP1 SWAP3 SWAP2 SWAP1 DUP2 DUP2 MSTORE PUSH1 0x20 ADD DUP3 DUP1 SLOAD PUSH2 0x383 SWAP1 PUSH2 0x7A2 JUMP JUMPDEST DUP1 ISZERO PUSH2 0x3D0 JUMPI DUP1 PUSH1 0x1F LT PUSH2 0x3A5 JUMPI PUSH2 0x100 DUP1 DUP4 SLOAD DIV MUL DUP4 MSTORE SWAP2 PUSH1 0x20 ADD SWAP2 PUSH2 0x3D0 JUMP JUMPDEST DUP3 ADD SWAP2 SWAP1 PUSH1 0x0 MSTORE PUSH1 0x20 PUSH1 0x0 KECCAK256 SWAP1 JUMPDEST DUP2 SLOAD DUP2 MSTORE SWAP1 PUSH1 0x1 ADD SWAP1 PUSH1 0x20 ADD DUP1 DUP4 GT PUSH2 0x3B3 JUMPI DUP3 SWAP1 SUB PUSH1 0x1F AND DUP3 ADD SWAP2 JUMPDEST POP POP POP POP POP SWAP1 POP SWAP1 JUMP JUMPDEST PUSH1 0x0 DUP2 SWAP1 POP SWAP2 SWAP1 POP JUMP JUMPDEST PUSH2 0x3ED DUP2 PUSH2 0x3DA JUMP JUMPDEST DUP3 MSTORE POP POP JUMP JUMPDEST PUSH1 0x0 PUSH1 0x20 DUP3 ADD SWAP1 POP PUSH2 0x408 PUSH1 0x0 DUP4 ADD DUP5 PUSH2 0x3E4 JUMP JUMPDEST SWAP3 SWAP2 POP POP JUMP JUMPDEST PUSH1 0x0 PUSH1 0x40 MLOAD SWAP1 POP SWAP1 JUMP JUMPDEST PUSH1 0x0 DUP1 REVERT JUMPDEST PUSH1 0x0 DUP1 REVERT JUMPDEST PUSH1 0x0 DUP1 REVERT JUMPDEST PUSH1 0x0 DUP1 REVERT JUMPDEST PUSH1 0x0 PUSH1 0x1F NOT PUSH1 0x1F DUP4 ADD AND SWAP1 POP SWAP2 SWAP1 POP JUMP JUMPDEST PUSH32 0x4E487B7100000000000000000000000000000000000000000000000000000000 PUSH1 0x0 MSTORE PUSH1 0x41 PUSH1 0x4 MSTORE PUSH1 0x24 PUSH1 0x0 REVERT JUMPDEST PUSH2 0x475 DUP3 PUSH2 0x42C JUMP JUMPDEST DUP2 ADD DUP2 DUP2 LT PUSH8 0xFFFFFFFFFFFFFFFF DUP3 GT OR ISZERO PUSH2 0x494 JUMPI PUSH2 0x493 PUSH2 0x43D JUMP JUMPDEST JUMPDEST DUP1 PUSH1 0x40 MSTORE POP POP POP JUMP JUMPDEST PUSH1 0x0 PUSH2 0x4A7 PUSH2 0x40E JUMP JUMPDEST SWAP1 POP PUSH2 0x4B3 DUP3 DUP3 PUSH2 0x46C JUMP JUMPDEST SWAP2 SWAP1 POP JUMP JUMPDEST PUSH1 0x0 PUSH8 0xFFFFFFFFFFFFFFFF DUP3 GT ISZERO PUSH2 0x4D3 JUMPI PUSH2 0x4D2 PUSH2 0x43D JUMP JUMPDEST JUMPDEST PUSH2 0x4DC DUP3 PUSH2 0x42C JUMP JUMPDEST SWAP1 POP PUSH1 0x20 DUP2 ADD SWAP1 POP SWAP2 SWAP1 POP JUMP JUMPDEST DUP3 DUP2 DUP4 CALLDATACOPY PUSH1 0x0 DUP4 DUP4 ADD MSTORE POP POP POP JUMP JUMPDEST PUSH1 0x0 PUSH2 0x50B PUSH2 0x506 DUP5 PUSH2 0x4B8 JUMP JUMPDEST PUSH2 0x49D JUMP JUMPDEST SWAP1 POP DUP3 DUP2 MSTORE PUSH1 0x20 DUP2 ADD DUP5 DUP5 DUP5 ADD GT ISZERO PUSH2 0x527 JUMPI PUSH2 0x526 PUSH2 0x427 JUMP JUMPDEST JUMPDEST PUSH2 0x532 DUP5 DUP3 DUP6 PUSH2 0x4E9 JUMP JUMPDEST POP SWAP4 SWAP3 POP POP POP JUMP JUMPDEST PUSH1 0x0 DUP3 PUSH1 0x1F DUP4 ADD SLT PUSH2 0x54F JUMPI PUSH2 0x54E PUSH2 0x422 JUMP JUMPDEST JUMPDEST DUP2 CALLDATALOAD PUSH2 0x55F DUP5 DUP3 PUSH1 0x20 DUP7 ADD PUSH2 0x4F8 JUMP JUMPDEST SWAP2 POP POP SWAP3 SWAP2 POP POP JUMP JUMPDEST PUSH1 0x0 PUSH1 0x20 DUP3 DUP5 SUB SLT ISZERO PUSH2 0x57E JUMPI PUSH2 0x57D PUSH2 0x418 JUMP JUMPDEST JUMPDEST PUSH1 0x0 DUP3 ADD CALLDATALOAD PUSH8 0xFFFFFFFFFFFFFFFF DUP2 GT ISZERO PUSH2 0x59C JUMPI PUSH2 0x59B PUSH2 0x41D JUMP JUMPDEST JUMPDEST PUSH2 0x5A8 DUP5 DUP3 DUP6 ADD PUSH2 0x53A JUMP JUMPDEST SWAP2 POP POP SWAP3 SWAP2 POP POP JUMP JUMPDEST PUSH1 0x0 PUSH20 0xFFFFFFFFFFFFFFFFFFFFFFFFFFFFFFFFFFFFFFFF DUP3 AND SWAP1 POP SWAP2 SWAP1 POP JUMP JUMPDEST PUSH1 0x0 PUSH2 0x5DC DUP3 PUSH2 0x5B1 JUMP JUMPDEST SWAP1 POP SWAP2 SWAP1 POP JUMP JUMPDEST PUSH2 0x5EC DUP2 PUSH2 0x5D1 JUMP JUMPDEST DUP2 EQ PUSH2 0x5F7 JUMPI PUSH1 0x0 DUP1 REVERT JUMPDEST POP JUMP JUMPDEST PUSH1 0x0 DUP2 CALLDATALOAD SWAP1 POP PUSH2 0x609 DUP2 PUSH2 0x5E3 JUMP JUMPDEST SWAP3 SWAP2 POP POP JUMP JUMPDEST PUSH1 0x0 PUSH1 0x20 DUP3 DUP5 SUB SLT ISZERO PUSH2 0x625 JUMPI PUSH2 0x624 PUSH2 0x418 JUMP JUMPDEST JUMPDEST PUSH1 0x0 PUSH2 0x633 DUP5 DUP3 DUP6 ADD PUSH2 0x5FA JUMP JUMPDEST SWAP2 POP POP SWAP3 SWAP2 POP POP JUMP JUMPDEST PUSH2 0x645 DUP2 PUSH2 0x5D1 JUMP JUMPDEST DUP3 MSTORE POP POP JUMP JUMPDEST PUSH1 0x0 PUSH1 0x20 DUP3 ADD SWAP1 POP PUSH2 0x660 PUSH1 0x0 DUP4 ADD DUP5 PUSH2 0x63C JUMP JUMPDEST SWAP3 SWAP2 POP POP JUMP JUMPDEST PUSH2 0x66F DUP2 PUSH2 0x3DA JUMP JUMPDEST DUP2 EQ PUSH2 0x67A JUMPI PUSH1 0x0 DUP1 REVERT JUMPDEST POP JUMP JUMPDEST PUSH1 0x0 DUP2 CALLDATALOAD SWAP1 POP PUSH2 0x68C DUP2 PUSH2 0x666 JUMP JUMPDEST SWAP3 SWAP2 POP POP JUMP JUMPDEST PUSH1 0x0 DUP1 PUSH1 0x40 DUP4 DUP6 SUB SLT ISZERO PUSH2 0x6A9 JUMPI PUSH2 0x6A8 PUSH2 0x418 JUMP JUMPDEST JUMPDEST PUSH1 0x0 PUSH2 0x6B7 DUP6 DUP3 DUP7 ADD PUSH2 0x5FA JUMP JUMPDEST SWAP3 POP POP PUSH1 0x20 PUSH2 0x6C8 DUP6 DUP3 DUP7 ADD PUSH2 0x67D JUMP JUMPDEST SWAP2 POP POP SWAP3 POP SWAP3 SWAP1 POP JUMP JUMPDEST PUSH1 0x0 DUP2 MLOAD SWAP1 POP SWAP2 SWAP1 POP JUMP JUMPDEST PUSH1 0x0 DUP3 DUP3 MSTORE PUSH1 0x20 DUP3 ADD SWAP1 POP SWAP3 SWAP2 POP POP JUMP JUMPDEST PUSH1 0x0 JUMPDEST DUP4 DUP2 LT ISZERO PUSH2 0x70C JUMPI DUP1 DUP3 ADD MLOAD DUP2 DUP5 ADD MSTORE PUSH1 0x20 DUP2 ADD SWAP1 POP PUSH2 0x6F1 JUMP JUMPDEST PUSH1 0x0 DUP5 DUP5 ADD MSTORE POP POP POP POP JUMP JUMPDEST PUSH1 0x0 PUSH2 0x723 DUP3 PUSH2 0x6D2 JUMP JUMPDEST PUSH2 0x72D DUP2 DUP6 PUSH2 0x6DD JUMP JUMPDEST SWAP4 POP PUSH2 0x73D DUP2 DUP6 PUSH1 0x20 DUP7 ADD PUSH2 0x6EE JUMP JUMPDEST PUSH2 0x746 DUP2 PUSH2 0x42C JUMP JUMPDEST DUP5 ADD SWAP2 POP POP SWAP3 SWAP2 POP POP JUMP JUMPDEST PUSH1 0x0 PUSH1 0x20 DUP3 ADD SWAP1 POP DUP2 DUP2 SUB PUSH1 0x0 DUP4 ADD MSTORE PUSH2 0x76B DUP2 DUP5 PUSH2 0x718 JUMP JUMPDEST SWAP1 POP SWAP3 SWAP2 POP POP JUMP JUMPDEST PUSH32 0x4E487B7100000000000000000000000000000000000000000000000000000000 PUSH1 0x0 MSTORE PUSH1 0x22 PUSH1 0x4 MSTORE PUSH1 0x24 PUSH1 0x0 REVERT JUMPDEST PUSH1 0x0 PUSH1 0x2 DUP3 DIV SWAP1 POP PUSH1 0x1 DUP3 AND DUP1 PUSH2 0x7BA JUMPI PUSH1 0x7F DUP3 AND SWAP2 POP JUMPDEST PUSH1 0x20 DUP3 LT DUP2 SUB PUSH2 0x7CD JUMPI PUSH2 0x7CC PUSH2 0x773 JUMP JUMPDEST JUMPDEST POP SWAP2 SWAP1 POP JUMP JUMPDEST PUSH1 0x0 DUP2 SWAP1 POP DUP2 PUSH1 0x0 MSTORE PUSH1 0x20 PUSH1 0x0 KECCAK256 SWAP1 POP SWAP2 SWAP1 POP JUMP JUMPDEST PUSH1 0x0 PUSH1 0x20 PUSH1 0x1F DUP4 ADD DIV SWAP1 POP SWAP2 SWAP1 POP JUMP JUMPDEST PUSH1 0x0 DUP3 DUP3 SHL SWAP1 POP SWAP3 SWAP2 POP POP JUMP JUMPDEST PUSH1 0x0 PUSH1 0x8 DUP4 MUL PUSH2 0x835 PUSH32 0xFFFFFFFFFFFFFFFFFFFFFFFFFFFFFFFFFFFFFFFFFFFFFFFFFFFFFFFFFFFFFFFF DUP3 PUSH2 0x7F8 JUMP JUMPDEST PUSH2 0x83F DUP7 DUP4 PUSH2 0x7F8 JUMP JUMPDEST SWAP6 POP DUP1 NOT DUP5 AND SWAP4 POP DUP1 DUP7 AND DUP5 OR SWAP3 POP POP POP SWAP4 SWAP3 POP POP POP JUMP JUMPDEST PUSH1 0x0 DUP2 SWAP1 POP SWAP2 SWAP1 POP JUMP JUMPDEST PUSH1 0x0 PUSH2 0x87C PUSH2 0x877 PUSH2 0x872 DUP5 PUSH2 0x3DA JUMP JUMPDEST PUSH2 0x857 JUMP JUMPDEST PUSH2 0x3DA JUMP JUMPDEST SWAP1 POP SWAP2 SWAP1 POP JUMP JUMPDEST PUSH1 0x0 DUP2 SWAP1 POP SWAP2 SWAP1 POP JUMP JUMPDEST PUSH2 0x896 DUP4 PUSH2 0x861 JUMP JUMPDEST PUSH2 0x8AA PUSH2 0x8A2 DUP3 PUSH2 0x883 JUMP JUMPDEST DUP5 DUP5 SLOAD PUSH2 0x805 JUMP JUMPDEST DUP3 SSTORE POP POP POP POP JUMP JUMPDEST PUSH1 0x0 SWAP1 JUMP JUMPDEST PUSH2 0x8BF PUSH2 0x8B2 JUMP JUMPDEST PUSH2 0x8CA DUP2 DUP5 DUP5 PUSH2 0x88D JUMP JUMPDEST POP POP POP JUMP JUMPDEST JUMPDEST DUP2 DUP2 LT ISZERO PUSH2 0x8EE JUMPI PUSH2 0x8E3 PUSH1 0x0 DUP3 PUSH2 0x8B7 JUMP JUMPDEST PUSH1 0x1 DUP2 ADD SWAP1 POP PUSH2 0x8D0 JUMP JUMPDEST POP POP JUMP JUMPDEST PUSH1 0x1F DUP3 GT ISZERO PUSH2 0x933 JUMPI PUSH2 0x904 DUP2 PUSH2 0x7D3 JUMP JUMPDEST PUSH2 0x90D DUP5 PUSH2 0x7E8 JUMP JUMPDEST DUP2 ADD PUSH1 0x20 DUP6 LT ISZERO PUSH2 0x91C JUMPI DUP2 SWAP1 POP JUMPDEST PUSH2 0x930 PUSH2 0x928 DUP6 PUSH2 0x7E8 JUMP JUMPDEST DUP4 ADD DUP3 PUSH2 0x8CF JUMP JUMPDEST POP POP JUMPDEST POP POP POP JUMP JUMPDEST PUSH1 0x0 DUP3 DUP3 SHR SWAP1 POP SWAP3 SWAP2 POP POP JUMP JUMPDEST PUSH1 0x0 PUSH2 0x956 PUSH1 0x0 NOT DUP5 PUSH1 0x8 MUL PUSH2 0x938 JUMP JUMPDEST NOT DUP1 DUP4 AND SWAP2 POP POP SWAP3 SWAP2 POP POP JUMP JUMPDEST PUSH1 0x0 PUSH2 0x96F DUP4 DUP4 PUSH2 0x945 JUMP JUMPDEST SWAP2 POP DUP3 PUSH1 0x2 MUL DUP3 OR SWAP1 POP SWAP3 SWAP2 POP POP JUMP JUMPDEST PUSH2 0x988 DUP3 PUSH2 0x6D2 JUMP JUMPDEST PUSH8 0xFFFFFFFFFFFFFFFF DUP2 GT ISZERO PUSH2 0x9A1 JUMPI PUSH2 0x9A0 PUSH2 0x43D JUMP JUMPDEST JUMPDEST PUSH2 0x9AB DUP3 SLOAD PUSH2 0x7A2 JUMP JUMPDEST PUSH2 0x9B6 DUP3 DUP3 DUP6 PUSH2 0x8F2 JUMP JUMPDEST PUSH1 0x0 PUSH1 0x20 SWAP1 POP PUSH1 0x1F DUP4 GT PUSH1 0x1 DUP2 EQ PUSH2 0x9E9 JUMPI PUSH1 0x0 DUP5 ISZERO PUSH2 0x9D7 JUMPI DUP3 DUP8 ADD MLOAD SWAP1 POP JUMPDEST PUSH2 0x9E1 DUP6 DUP3 PUSH2 0x963 JUMP JUMPDEST DUP7 SSTORE POP PUSH2 0xA49 JUMP JUMPDEST PUSH1 0x1F NOT DUP5 AND PUSH2 0x9F7 DUP7 PUSH2 0x7D3 JUMP JUMPDEST PUSH1 0x0 JUMPDEST DUP3 DUP2 LT ISZERO PUSH2 0xA1F JUMPI DUP5 DUP10 ADD MLOAD DUP3 SSTORE PUSH1 0x1 DUP3 ADD SWAP2 POP PUSH1 0x20 DUP6 ADD SWAP5 POP PUSH1 0x20 DUP2 ADD SWAP1 POP PUSH2 0x9FA JUMP JUMPDEST DUP7 DUP4 LT ISZERO PUSH2 0xA3C JUMPI DUP5 DUP10 ADD MLOAD PUSH2 0xA38 PUSH1 0x1F DUP10 AND DUP3 PUSH2 0x945 JUMP JUMPDEST DUP4 SSTORE POP JUMPDEST PUSH1 0x1 PUSH1 0x2 DUP9 MUL ADD DUP9 SSTORE POP POP POP JUMPDEST POP POP POP POP POP POP JUMP JUMPDEST PUSH32 0x4E6F7420656E6F75676820746F6B656E73000000000000000000000000000000 PUSH1 0x0 DUP3 ADD MSTORE POP JUMP JUMPDEST PUSH1 0x0 PUSH2 0xA87 PUSH1 0x11 DUP4 PUSH2 0x6DD JUMP JUMPDEST SWAP2 POP PUSH2 0xA92 DUP3 PUSH2 0xA51 JUMP JUMPDEST PUSH1 0x20 DUP3 ADD SWAP1 POP SWAP2 SWAP1 POP JUMP JUMPDEST PUSH1 0x0 PUSH1 0x20 DUP3 ADD SWAP1 POP DUP2 DUP2 SUB PUSH1 0x0 DUP4 ADD MSTORE PUSH2 0xAB6 DUP2 PUSH2 0xA7A JUMP JUMPDEST SWAP1 POP SWAP2 SWAP1 POP JUMP JUMPDEST PUSH32 0x4E487B7100000000000000000000000000000000000000000000000000000000 PUSH1 0x0 MSTORE PUSH1 0x11 PUSH1 0x4 MSTORE PUSH1 0x24 PUSH1 0x0 REVERT JUMPDEST PUSH1 0x0 PUSH2 0xAF7 DUP3 PUSH2 0x3DA JUMP JUMPDEST SWAP2 POP PUSH2 0xB02 DUP4 PUSH2 0x3DA JUMP JUMPDEST SWAP3 POP DUP3 DUP3 SUB SWAP1 POP DUP2 DUP2 GT ISZERO PUSH2 0xB1A JUMPI PUSH2 0xB19 PUSH2 0xABD JUMP JUMPDEST JUMPDEST SWAP3 SWAP2 POP POP JUMP JUMPDEST PUSH1 0x0 PUSH2 0xB2B DUP3 PUSH2 0x3DA JUMP JUMPDEST SWAP2 POP PUSH2 0xB36 DUP4 PUSH2 0x3DA JUMP JUMPDEST SWAP3 POP DUP3 DUP3 ADD SWAP1 POP DUP1 DUP3 GT ISZERO PUSH2 0xB4E JUMPI PUSH2 0xB4D PUSH2 0xABD JUMP JUMPDEST JUMPDEST SWAP3 SWAP2 POP POP JUMP INVALID LOG2 PUSH5 0x6970667358 0x22 SLT KECCAK256 0xDB 0xC5 PC 0x27 0xB7 POP DUP11 SHL 0x2E SWAP1 PC 0xB7 0xE3 PUSH15 0x31BAB0E086E895F8C020E8937584EC SELFDESTRUCT SUB RETURNDATASIZE PUSH5 0x736F6C6343 STOP ADDMOD SGT STOP CALLER "},"methodIdentifiers":{"balanceOf(address)":"70a08231","getMessage()":"ce6d41de","owner()":"8da5cb5b","setMessage(string)":"368b8772","totalSupply()":"18160ddd","transfer(address,uint256)":"a9059cbb"}}}}}