{
  "_format": "hh-sol-artifact-1",
  "contractName": "MyContract",
  "sourceName": "contracts/MyContract.sol",
  "abi": [
    {
      "inputs": [],
      "stateMutability": "nonpayable",
      "type": "constructor"
    },
    {
      "anonymous": false,
      "inputs": [
        {
          "indexed": true,
          "internalType": "address",
          "name": "_from",
          "type": "address"
        },
        {
          "indexed": true,
          "internalType": "address",
          "name": "_to",
          "type": "address"
        },
        {
          "indexed": false,
          "internalType": "uint256",
          "name": "_value",
          "type": "uint256"
        }
      ],
      "name": "Transfer",
      "type": "event"
    },
    {
      "inputs": [
        {
          "internalType": "address",
          "name": "account",
          "type": "address"
        }
      ],
      "name": "balanceOf",
      "outputs": [
        {
          "internalType": "uint256",
          "name": "",
          "type": "uint256"
        }
      ],
      "stateMutability": "view",
      "type": "function"
    },
    {
      "inputs": [],
      "name": "getMessage",
      "outputs": [
        {
          "internalType": "string",
          "name": "",
          "type": "string"
        }
      ],
      "stateMutability": "view",
      "type": "function"
    },
    {
      "inputs": [],
      "name": "getUsers",
      "outputs": [
        {
          "internalType": "address[]",
          "name": "",
          "type": "address[]"
        }
      ],
      "stateMutability": "view",
      "type": "function"
    },
    {
      "inputs": [
        {
          "internalType": "address",
          "name": "_userAddress",
          "type": "address"
        },
        {
          "internalType": "string",
          "name": "_name",
          "type": "string"
        }
      ],
      "name": "grantAccess",
      "outputs": [],
      "stateMutability": "nonpayable",
      "type": "function"
    },
    {
      "inputs": [
        {
          "internalType": "uint256",
          "name": "",
          "type": "uint256"
        }
      ],
      "name": "nameList",
      "outputs": [
        {
          "internalType": "string",
          "name": "",
          "type": "string"
        }
      ],
      "stateMutability": "view",
      "type": "function"
    },
    {
      "inputs": [],
      "name": "owner",
      "outputs": [
        {
          "internalType": "address",
          "name": "",
          "type": "address"
        }
      ],
      "stateMutability": "view",
      "type": "function"
    },
    {
      "inputs": [
        {
          "internalType": "string",
          "name": "_newMessage",
          "type": "string"
        }
      ],
      "name": "setMessage",
      "outputs": [],
      "stateMutability": "nonpayable",
      "type": "function"
    },
    {
      "inputs": [],
      "name": "totalSupply",
      "outputs": [
        {
          "internalType": "uint256",
          "name": "",
          "type": "uint256"
        }
      ],
      "stateMutability": "view",
      "type": "function"
    },
    {
      "inputs": [
        {
          "internalType": "address",
          "name": "to",
          "type": "address"
        },
        {
          "internalType": "uint256",
          "name": "amount",
          "type": "uint256"
        }
      ],
      "name": "transfer",
      "outputs": [],
      "stateMutability": "nonpayable",
      "type": "function"
    },
    {
      "inputs": [
        {
          "internalType": "address",
          "name": "",
          "type": "address"
        }
      ],
      "name": "userAccess",
      "outputs": [
        {
          "internalType": "bool",
          "name": "",
          "type": "bool"
        }
      ],
      "stateMutability": "view",
      "type": "function"
    },
    {
      "inputs": [
        {
          "internalType": "uint256",
          "name": "",
          "type": "uint256"
        }
      ],
      "name": "userList",
      "outputs": [
        {
          "internalType": "address",
          "name": "",
          "type": "address"
        }
      ],
      "stateMutability": "view",
      "type": "function"
    }
  ],
  "bytecode": "0x6080604052620f42406005553480156200001857600080fd5b5033600160006101000a81548173ffffffffffffffffffffffffffffffffffffffff021916908373ffffffffffffffffffffffffffffffffffffffff1602179055506040518060400160405280600f81526020017f496e697469616c206d657373616765000000000000000000000000000000000081525060009081620000a0919062000489565b506003600160009054906101000a900473ffffffffffffffffffffffffffffffffffffffff169080600181540180825580915050600190039060005260206000200160009091909190916101000a81548173ffffffffffffffffffffffffffffffffffffffff021916908373ffffffffffffffffffffffffffffffffffffffff160217905550600480600181540180825580915050600190039060005260206000200160006040518060400160405280600581526020017f41646d696e000000000000000000000000000000000000000000000000000000815250909190915090816200018e919062000489565b50600160026000600160009054906101000a900473ffffffffffffffffffffffffffffffffffffffff1673ffffffffffffffffffffffffffffffffffffffff1673ffffffffffffffffffffffffffffffffffffffff16815260200190815260200160002060006101000a81548160ff02191690831515021790555062000570565b600081519050919050565b7f4e487b7100000000000000000000000000000000000000000000000000000000600052604160045260246000fd5b7f4e487b7100000000000000000000000000000000000000000000000000000000600052602260045260246000fd5b600060028204905060018216806200029157607f821691505b602082108103620002a757620002a662000249565b5b50919050565b60008190508160005260206000209050919050565b60006020601f8301049050919050565b600082821b905092915050565b600060088302620003117fffffffffffffffffffffffffffffffffffffffffffffffffffffffffffffffff82620002d2565b6200031d8683620002d2565b95508019841693508086168417925050509392505050565b6000819050919050565b6000819050919050565b60006200036a620003646200035e8462000335565b6200033f565b62000335565b9050919050565b6000819050919050565b620003868362000349565b6200039e620003958262000371565b848454620002df565b825550505050565b600090565b620003b5620003a6565b620003c28184846200037b565b505050565b5b81811015620003ea57620003de600082620003ab565b600181019050620003c8565b5050565b601f82111562000439576200040381620002ad565b6200040e84620002c2565b810160208510156200041e578190505b620004366200042d85620002c2565b830182620003c7565b50505b505050565b600082821c905092915050565b60006200045e600019846008026200043e565b1980831691505092915050565b60006200047983836200044b565b9150826002028217905092915050565b62000494826200020f565b67ffffffffffffffff811115620004b057620004af6200021a565b5b620004bc825462000278565b620004c9828285620003ee565b600060209050601f831160018114620005015760008415620004ec578287015190505b620004f885826200046b565b86555062000568565b601f1984166200051186620002ad565b60005b828110156200053b5784890151825560018201915060208501945060208101905062000514565b868310156200055b578489015162000557601f8916826200044b565b8355505b6001600288020188555050505b505050505050565b6111d380620005806000396000f3fe608060405234801561001057600080fd5b50600436106100a85760003560e01c80638da5cb5b116100715780638da5cb5b146101655780639f4216e814610183578063a9059cbb146101b3578063ce6d41de146101cf578063e50fe48e146101ed578063f469cb6a14610209576100a8565b8062ce8e3e146100ad57806318160ddd146100cb578063368b8772146100e957806370a082311461010557806389eaa61014610135575b600080fd5b6100b5610239565b6040516100c29190610908565b60405180910390f35b6100d36102c7565b6040516100e09190610943565b60405180910390f35b61010360048036038101906100fe9190610ab8565b6102cd565b005b61011f600480360381019061011a9190610b2d565b6102e0565b60405161012c9190610943565b60405180910390f35b61014f600480360381019061014a9190610b2d565b610329565b60405161015c9190610b75565b60405180910390f35b61016d610349565b60405161017a9190610b9f565b60405180910390f35b61019d60048036038101906101989190610be6565b61036f565b6040516101aa9190610b9f565b60405180910390f35b6101cd60048036038101906101c89190610c13565b6103ae565b005b6101d7610545565b6040516101e49190610cd2565b60405180910390f35b61020760048036038101906102029190610cf4565b6105d7565b005b610223600480360381019061021e9190610be6565b610711565b6040516102309190610cd2565b60405180910390f35b606060038054806020026020016040519081016040528092919081815260200182805480156102bd57602002820191906000526020600020905b8160009054906101000a900473ffffffffffffffffffffffffffffffffffffffff1673ffffffffffffffffffffffffffffffffffffffff1681526020019060010190808311610273575b5050505050905090565b60055481565b80600090816102dc9190610f5c565b5050565b6000600660008373ffffffffffffffffffffffffffffffffffffffff1673ffffffffffffffffffffffffffffffffffffffff168152602001908152602001600020549050919050565b60026020528060005260406000206000915054906101000a900460ff1681565b600160009054906101000a900473ffffffffffffffffffffffffffffffffffffffff1681565b6003818154811061037f57600080fd5b906000526020600020016000915054906101000a900473ffffffffffffffffffffffffffffffffffffffff1681565b80600660003373ffffffffffffffffffffffffffffffffffffffff1673ffffffffffffffffffffffffffffffffffffffff168152602001908152602001600020541015610430576040517f08c379a00000000000000000000000000000000000000000000000000000000081526004016104279061107a565b60405180910390fd5b80600660003373ffffffffffffffffffffffffffffffffffffffff1673ffffffffffffffffffffffffffffffffffffffff168152602001908152602001600020600082825461047f91906110c9565b9250508190555080600660008473ffffffffffffffffffffffffffffffffffffffff1673ffffffffffffffffffffffffffffffffffffffff16815260200190815260200160002060008282546104d591906110fd565b925050819055508173ffffffffffffffffffffffffffffffffffffffff163373ffffffffffffffffffffffffffffffffffffffff167fddf252ad1be2c89b69c2b068fc378daa952ba7f163c4a11628f55a4df523b3ef836040516105399190610943565b60405180910390a35050565b60606000805461055490610d7f565b80601f016020809104026020016040519081016040528092919081815260200182805461058090610d7f565b80156105cd5780601f106105a2576101008083540402835291602001916105cd565b820191906000526020600020905b8154815290600101906020018083116105b057829003601f168201915b5050505050905090565b60001515600260008473ffffffffffffffffffffffffffffffffffffffff1673ffffffffffffffffffffffffffffffffffffffff16815260200190815260200160002060009054906101000a900460ff1615151461066a576040517f08c379a00000000000000000000000000000000000000000000000000000000081526004016106619061117d565b60405180910390fd5b6106758260016107bd565b6003339080600181540180825580915050600190039060005260206000200160009091909190916101000a81548173ffffffffffffffffffffffffffffffffffffffff021916908373ffffffffffffffffffffffffffffffffffffffff16021790555060048190806001815401808255809150506001900390600052602060002001600090919091909150908161070c9190610f5c565b505050565b6004818154811061072157600080fd5b90600052602060002001600091509050805461073c90610d7f565b80601f016020809104026020016040519081016040528092919081815260200182805461076890610d7f565b80156107b55780601f1061078a576101008083540402835291602001916107b5565b820191906000526020600020905b81548152906001019060200180831161079857829003601f168201915b505050505081565b80600260008473ffffffffffffffffffffffffffffffffffffffff1673ffffffffffffffffffffffffffffffffffffffff16815260200190815260200160002060006101000a81548160ff0219169083151502179055505050565b600081519050919050565b600082825260208201905092915050565b6000819050602082019050919050565b600073ffffffffffffffffffffffffffffffffffffffff82169050919050565b600061086f82610844565b9050919050565b61087f81610864565b82525050565b60006108918383610876565b60208301905092915050565b6000602082019050919050565b60006108b582610818565b6108bf8185610823565b93506108ca83610834565b8060005b838110156108fb5781516108e28882610885565b97506108ed8361089d565b9250506001810190506108ce565b5085935050505092915050565b6000602082019050818103600083015261092281846108aa565b905092915050565b6000819050919050565b61093d8161092a565b82525050565b60006020820190506109586000830184610934565b92915050565b6000604051905090565b600080fd5b600080fd5b600080fd5b600080fd5b6000601f19601f8301169050919050565b7f4e487b7100000000000000000000000000000000000000000000000000000000600052604160045260246000fd5b6109c58261097c565b810181811067ffffffffffffffff821117156109e4576109e361098d565b5b80604052505050565b60006109f761095e565b9050610a0382826109bc565b919050565b600067ffffffffffffffff821115610a2357610a2261098d565b5b610a2c8261097c565b9050602081019050919050565b82818337600083830152505050565b6000610a5b610a5684610a08565b6109ed565b905082815260208101848484011115610a7757610a76610977565b5b610a82848285610a39565b509392505050565b600082601f830112610a9f57610a9e610972565b5b8135610aaf848260208601610a48565b91505092915050565b600060208284031215610ace57610acd610968565b5b600082013567ffffffffffffffff811115610aec57610aeb61096d565b5b610af884828501610a8a565b91505092915050565b610b0a81610864565b8114610b1557600080fd5b50565b600081359050610b2781610b01565b92915050565b600060208284031215610b4357610b42610968565b5b6000610b5184828501610b18565b91505092915050565b60008115159050919050565b610b6f81610b5a565b82525050565b6000602082019050610b8a6000830184610b66565b92915050565b610b9981610864565b82525050565b6000602082019050610bb46000830184610b90565b92915050565b610bc38161092a565b8114610bce57600080fd5b50565b600081359050610be081610bba565b92915050565b600060208284031215610bfc57610bfb610968565b5b6000610c0a84828501610bd1565b91505092915050565b60008060408385031215610c2a57610c29610968565b5b6000610c3885828601610b18565b9250506020610c4985828601610bd1565b9150509250929050565b600081519050919050565b600082825260208201905092915050565b60005b83811015610c8d578082015181840152602081019050610c72565b60008484015250505050565b6000610ca482610c53565b610cae8185610c5e565b9350610cbe818560208601610c6f565b610cc78161097c565b840191505092915050565b60006020820190508181036000830152610cec8184610c99565b905092915050565b60008060408385031215610d0b57610d0a610968565b5b6000610d1985828601610b18565b925050602083013567ffffffffffffffff811115610d3a57610d3961096d565b5b610d4685828601610a8a565b9150509250929050565b7f4e487b7100000000000000000000000000000000000000000000000000000000600052602260045260246000fd5b60006002820490506001821680610d9757607f821691505b602082108103610daa57610da9610d50565b5b50919050565b60008190508160005260206000209050919050565b60006020601f8301049050919050565b600082821b905092915050565b600060088302610e127fffffffffffffffffffffffffffffffffffffffffffffffffffffffffffffffff82610dd5565b610e1c8683610dd5565b95508019841693508086168417925050509392505050565b6000819050919050565b6000610e59610e54610e4f8461092a565b610e34565b61092a565b9050919050565b6000819050919050565b610e7383610e3e565b610e87610e7f82610e60565b848454610de2565b825550505050565b600090565b610e9c610e8f565b610ea7818484610e6a565b505050565b5b81811015610ecb57610ec0600082610e94565b600181019050610ead565b5050565b601f821115610f1057610ee181610db0565b610eea84610dc5565b81016020851015610ef9578190505b610f0d610f0585610dc5565b830182610eac565b50505b505050565b600082821c905092915050565b6000610f3360001984600802610f15565b1980831691505092915050565b6000610f4c8383610f22565b9150826002028217905092915050565b610f6582610c53565b67ffffffffffffffff811115610f7e57610f7d61098d565b5b610f888254610d7f565b610f93828285610ecf565b600060209050601f831160018114610fc65760008415610fb4578287015190505b610fbe8582610f40565b865550611026565b601f198416610fd486610db0565b60005b82811015610ffc57848901518255600182019150602085019450602081019050610fd7565b868310156110195784890151611015601f891682610f22565b8355505b6001600288020188555050505b505050505050565b7f4e6f7420656e6f75676820746f6b656e73000000000000000000000000000000600082015250565b6000611064601183610c5e565b915061106f8261102e565b602082019050919050565b6000602082019050818103600083015261109381611057565b9050919050565b7f4e487b7100000000000000000000000000000000000000000000000000000000600052601160045260246000fd5b60006110d48261092a565b91506110df8361092a565b92508282039050818111156110f7576110f661109a565b5b92915050565b60006111088261092a565b91506111138361092a565b925082820190508082111561112b5761112a61109a565b5b92915050565b7f416c726561647920686173206163636573730000000000000000000000000000600082015250565b6000611167601283610c5e565b915061117282611131565b602082019050919050565b600060208201905081810360008301526111968161115a565b905091905056fea264697066735822122005a364d888a35bb1772ca0b96dceca397555216d8c09c47645a0a2391228de6a64736f6c63430008130033",
  "linkReferences": {},
  "deployedLinkReferences": {}
}